:100000000C9447020C9464020C9464020C946402F5
:100010000C9464020C9464020C9464020C946402C8
:100020000C9464020C9464020C940D210C94E12154
:100030000C949C1B0C9464020C9464020C94640257
:100040000C9464020C9464020C9464020C94640298
:100050000C9464020C94231C0C9464020C946402AF
:100060000C9464020C9464020C9464020C94640278
:100070000C9464020C9464020C9464020C94640268
:100080000C9464020C9464020C9464020C94640258
:100090000C9464020C9464020C9464020C94640248
:1000A0000C9464020C9464020C9464022900140001
:1000B0001A000800150017001C0018000C001200A0
:1000C00013002A002B0004001600070009000A0094
:1000D0000B000D000E000F002D002800E1001D0098
:1000E0001B00060019000500E10011001000360099
:1000F0003700E5002C0029000000E000E7002C415B
:100100002C42E2002A000000E1002A0000001E004C
:100110001F002000210022002300240025002600CB
:1001200027000000000004001600070009000A0074
:100130000B000D000E000F002800000000001D0045
:100140001B00060019000500E10011001000360038
:1001500037000000000029000000E000E7002C410B
:100160002C42E2002A000000E100000000001E0016
:100170001F0020002100220023002400250026006B
:1001800027000000000004001600070009000A0014
:100190000B000D000E000F002800000000001D00E5
:1001A0001B00060019000500E100110010003600D8
:1001B00037000000000029000000E000E7002C41AB
:1001C0002C42E2002A000000E100000000001E00B6
:1001D0001F0020002100220023002400250026000B
:1001E00027000000000004001600070009000A00B4
:1001F0000B000D000E000F002800000000001D0085
:100200001B00060019000500E10011001000360077
:1002100037000000000029000000E000E7002C414A
:100220002C42E2002A000000E10000000000000073
:10023000000000002A2B2800000000000000000041
:100240000000000000000029000000002C1E3420E7
:10025000212224342627252E362D3738271E1F200D
:100260002122232425263333362E37381F04050652
:100270000708090A0B0C0D0E0F1011121314151696
:100280001718191A1B1C1D2F3130232D3504050694
:100290000708090A0B0C0D0E0F1011121314151676
:1002A0001718191A1B1C1D2F3130354C0000000087
:1002B000000000000000000000000000000000003E
:1002C000000000000000000000000000000000002E
:1002D0007E0F00D4FFFFFFC7000000781603630005
:1002E0006F006F006C0038003400360062006C0054
:1002F000650000000A036D002E006B00690000001D
:100300000403090409025B00030100A0FA090400C8
:10031000000103010100092111010001224400072D
:10032000058103080001090401000203000000091F
:10033000211101000122220007058203200001078C
:100340000503032000010904020001030000000965
:10035000211101000122B6000705840320000112CB
:1003600001000200000008434D46080001010200A0
:10037000010660FF0961A1010962150026FF0095D1
:1003800020750881020963150026FF009520750875
:100390009102C005010902A10185020901A1000520
:1003A0000919012908150025019508750181020523
:1003B00001093009311581257F95027508810609EB
:1003C000381581257F950175088106050C0A3802CC
:1003D0001581257F950175088106C0C0050109803A
:1003E000A101850319012AB700150126B70095015F
:1003F00075108100C0050C0901A101850419012AAD
:10040000A002150126A002950175108100C005010A
:100410000906A1018506050719E029E71500250150
:100420009508750181020507190029EF15002501BE
:1004300095F07501810205081901290595057501D9
:100440009102950175039101C005010906A10105FD
:100450000719E029E7150025019508750181029526
:1004600001750881010507190029FF150026FF0005
:100470009506750881000508190129051500250153
:10048000950575019102950175039101C000112434
:100490001FBECFEFDAE0DEBFCDBF11E0A0E0B1E0DC
:1004A000E0E6F9E402C005900D92A83AB107D9F749
:1004B00022E0A8EAB1E001C01D92AE3BB207E1F72D
:1004C0000E94A6110C945C240C9400008430B8F4B3
:1004D0006430A8F44C3098F450E09CE0699F400DE3
:1004E000511D1124FA0190E3899FE00DF11D1124A3
:1004F000EE0FFF1FE455FF4F85919491089581E021
:1005000090E0089581E008950E948202089581E0BC
:1005100008950E94820208950E9489020895089514
:100520000E948F020895A6E0B0E0E9E9F2E00C94A1
:10053000B82349835A839E833091AF0189819A8180
:1005400031111AC03E81332399F0222389F00E9491
:10055000FE07182F682F89819A810E94DA07698126
:100560007A81812F0E940D0F2696E3E00C94D4230C
:100570000E94EC07182FF3CF0E94FE0769817A8151
:10058000F1CFFC01262F40815181628173818481EA
:1005900095810E9493020895CF93DF93EC0161E06F
:1005A0000E94C102BE010E948402DF91CF91089592
:1005B000CF93DF93EC0160E00E94C102BE010E9474
:1005C0009002DF91CF91089508950E94D6060E946F
:1005D000E4022FEF84E39CE0215080409040E1F75B
:1005E00000C0000008950E94E5020E94471C089583
:1005F0000E94E5020E94581C08950F931F93CF9309
:10060000DF938C0161E00E94C102EC01B8010E94FD
:10061000A214811106C080E0DF91CF911F910F914C
:100620000895B801CE010E948C028823A1F3B8017D
:10063000CE010E945619882371F3B801CE010E94A1
:100640008915882341F3B801CE010E94C818882378
:1006500011F3B801CE010E949A198823E1F2F80142
:100660008581882361F0C330FCE7DF07E9F058F4A7
:10067000C115ECE7DE07A9F0C130DC47B9F0C801CD
:100680000E948702C9CFCB358CE7D807A9F0CC35BB
:10069000ECE7DE0771F0CA35DC4789F70E94560C9B
:1006A000EECF0E94F302B7CF0E945E0C0E94F802C8
:1006B000B2CF0E944C0CE3CF0E945A0CE0CF0E94B4
:1006C000781B0E94860308950E948A030E947D1B66
:1006D0000895089581E008950895CF93DF93D82F6A
:1006E0000E946A03C82F882319F08D2F0E946C0383
:1006F0008C2FDF91CF9108950895CF93C82F0E943A
:1007000069038C2F0E946D03CF91089580E00E94B1
:100710007D0308950E94E8190E947D030895CF93F8
:100720000E94E819C82F8091AA018C1779F0C09314
:10073000AA010E94081C6093AB017093AC018093E6
:10074000AD019093AE018C2F0E947D03CF9108954F
:10075000ADE0B0E0EEEAF3E00C94B92348875987A6
:100760006A877B878C879D8791110E94840B1F82EB
:1007700086E0FE013896DE01119601900D928A9571
:10078000E1F78D8181110DC029813A814B815C8116
:100790006D817E818F810E94B70A2D96E2E00C94D4
:1007A000D523CE0101960E94CC028111EDCFF5CF69
:1007B000FC012481213021F4808191810E942B0849
:1007C0000895662329F00E943D120E941013089597
:1007D0000E949712FACFCF93C82F8823B9F08CEFDD
:1007E0008C0F813AA8F46C2F809100019091010147
:1007F0000E947B1A882329F08C2F0E94440B0E94B0
:10080000BD0B8C2F0E943C0B0E94BD0BCF91089515
:1008100080E28C0F883048F4C77081E001C0880FF7
:10082000CA95EAF70E94670BEFCFEBE5EC0FE330D8
:1008300040F4F0E0E45BFE4F808190E00E941D1ADE
:10084000E5CFE8E5EC0FEB3150F4F0E0EE0FFF1FE1
:10085000EA5EFE4F808191810E94421AD7CF83E3E6
:100860008C0F833198F661E08C2F0E94E103CECF8C
:10087000882381F19CEF980F913A28F40E94440B51
:100880000E94BD0B089590E2980F983050F4877045
:1008900091E001C0990F8A95EAF7892F0E946D0BAC
:1008A000EFCF9BE5980F933028F490E080E00E9412
:1008B0001D1A089598E5980F9B3128F490E080E088
:1008C0000E94421A089593E3980F933118F460E060
:1008D0000E94E10308951F93CF93DF93182FEB013C
:1008E0000E94EB03209739F4812F0E943804DF9196
:1008F000CF911F9108958FE99FE00197F1F700C014
:1009000000002197EFCF70E060E0893311F460E5DB
:1009100070E00E946B040895882321F00E94670B09
:100920000E94BD0B0895882321F00E946D0B0E9448
:10093000BD0B0895B0E0A0E0E0EAF4E00C94B2232F
:100940006C01D62FC72FFC011581068102950F700F
:100950000E945D0BE82E8823E9F0E12E1123D1F0EF
:100960008C2F807F803451F080E28D0F8830F8F03A
:10097000011104C08C2F807E8032C9F080919C02CE
:1009800082FF15C082E00E94200C0E945D0B91E066
:10099000E82EE926BC2EB2949FE0B922FBE0FB15BD
:1009A000B8F1EB2DF0E0E25AFB4D0C949C23E12CC6
:1009B000F1CF0C2F0F70C07F11F00295007F112333
:1009C00099F0002359F080E28D0F883010F0D1119A
:1009D00007C0802F0E94670B0E94BD0B8D2F5AC04D
:1009E000802F0E94770BF8CF8D2F0E9438040023B0
:1009F00079F080E28D0F883010F0D11104C0802F83
:100A00000E946D0B03C0802F0E947D0B0E94BD0BC6
:100A1000EB2DE850FF0B349720F40E94E8190E9458
:100A20007D03EE2089F00E94590B80FD0DC0F60178
:100A300015820E94530B0E944E07C6010E949D061C
:100A40000E94530B0E945A07CDB7DEB7E9E00C9421
:100A5000CE232C2F2F70F22EC07FC03219F0F294CB
:100A600080EFF822DD2341F0D130D1F1112309F4D8
:100A700044C00023F1F0B2CF80919C0282FD15C0EA
:100A8000112359F0FF2029F08F2D0E94670B0E943F
:100A9000BD0B80E00E94EB03BBCF80E00E943804D6
:100AA000FF2009F4B5CF8F2DABCF112369F00111D1
:100AB00004C08F2D0E948C04ABCF013009F0A8CF69
:100AC0008F2D0E949B0BA4CF0111A2CF8F2D0E94CE
:100AD00093048F2D0E94A70B8F2D0E948B0B98CF14
:100AE000112321F0063008F093CFE3CF053008F052
:100AF0008FCF8F2D0E9493048BCF0023D1F3D93356
:100B000049F43FEF87EE93E0315080409040E1F7A9
:100B100000C000008D2F0E9438047ACF8C2F86955C
:100B20008695837069F0813009F072CF8D2F9C2FEC
:100B30009370111102C080E090E00E94421A68CFC9
:100B40008D2F9C2F9370111102C080E090E00E94C5
:100B50001D1A5ECF612F8D2F0E94E10359CF8C2F7C
:100B6000837079F5111154CF4D2F429546954770FA
:100B7000440F440F8D2F8F70042E01C0880F0A94EC
:100B8000EAF72D2F2071D4FF07C02FE030E001C01D
:100B9000220F4A95EAF72095C695C695C370822B19
:100BA000C23049F058F4C13019F00E942A0730CF02
:100BB0000E9424072DCF0E9430072ACF0E942107D0
:100BC00027CF8695112311F08C2F8170882309F48B
:100BD0001FCF4D2F429546954770440F440F8D2FE0
:100BE0008F70042E01C0880F0A94EAF72D2F207110
:100BF000D4FF07C02FE030E001C0220F4A95EAF78A
:100C00002095C695C695C370822BC23049F058F422
:100C1000C13019F00E947907FBCE0E947307F8CE0D
:100C20000E947F07F5CE0E943C07F2CECF701123C1
:100C300029F08C2F0E944E078D2F3CCF8D2F0E94C4
:100C400093048C2F0E945A07E3CED23F41F160F407
:100C5000D03FB9F0D13F81F0112309F446C0011112
:100C6000BDCE8C2F8F711FC0D33F01F1D43FA1F7B0
:100C700080919C0282FD24C08C2F8F71112311F36F
:100C800012C0112341F0053008F0C2CE8C2F8F71B5
:100C90000E946707BDCE063008F0BACEF7CF8C2F82
:100CA0008F711111CFCF0E944E07B2CE112329F0C0
:100CB0008C2F8F710E944507ABCE0E944107A8CEB2
:100CC000112349F0CF718C2F0E944E0763E08C2FC7
:100CD0000E94020C9DCE81E00E94200C023008F49C
:100CE00097CE82E00E94200C93CE002359F0D93396
:100CF00009F010CFEFEFF7EE23E0E150F040204095
:100D0000E1F706CF8C2F8F719DCF0F931F93CF9359
:100D1000DF93EC01688179818D810E9436088C0116
:100D20000E9485070E942007B801CE010E949A0404
:100D3000DF91CF911F910F910895CF93DF93EC0135
:100D40008C81882399F0CE010E94FD02811111C08F
:100D50000E945D0B882351F08D81882339F08091AA
:100D60009C0282FF03C082E00E94200CDF91CF91A1
:100D70000895CE010E948506CE010E94D802F6CFCA
:100D800090E080E00E941D1A90E080E00E94421AEC
:100D90000E94840B0E94BD0B0E942C130E94101312
:100DA00008950E944C0B0E94C00608950E94740B87
:100DB0000E94D106089592959F70963091F058F454
:100DC000925F9F70923058F4803F19F030F4883E63
:100DD00030F481E008959A5FF4CF843FD1F380E04E
:100DE0000895883EB0F3813FD1F7F3CFFC01248111
:100DF000222339F0808191810E942B080E94DB061A
:100E0000089580E00895A6E0B0E0E9E0F7E00C94F2
:100E1000B9232696E2E00C94D523A7E0B0E0E3E105
:100E2000F7E00C94B9232796E2E00C94D5230895BB
:100E30000E94170708950E9418078093C301089520
:100E400008950E941B0708959091C301892B0E9469
:100E50001B0708959091C30189230E941B070895E1
:100E60009091C30189270E941B0708950E941707CC
:100E700008950E94360708950E9439078093C201A1
:100E8000089580E00E943C07089591E001C0990F09
:100E90008A95EAF7892F0E943C07089521E030E007
:100EA00001C0220F8A95EAF78091C201822B0E942D
:100EB0003C07089521E030E001C0220F8A95EAF74F
:100EC00020958091C20182230E943C07089521E071
:100ED00030E001C0220F8A95EAF78091C201822793
:100EE0000E943C0708959091C201892B0E943C0703
:100EF00008959091C20189230E943C070895909122
:100F0000C20189270E943C0708950895262F277063
:100F100091E001C0990F2A95EAF723E0769567954D
:100F20002A95E1F7FB01EE0FFF1FE60FF71FE40F15
:100F3000F51F50E040E0682F70E08191DF011197CC
:100F40009B01042E02C0369527950A94E2F7217082
:100F500021952827292328272C934F5F5F4F433063
:100F6000510559F70895A82FA77023E09695879506
:100F70002A95E1F7FC01EE0FFF1FE80FF91FE60FBE
:100F8000F71F50E040E080E0219130E00A2E02C0DF
:100F9000369527950A94E2F721703327042E01C075
:100FA000220F0A94EAF7822B4F5F5F4F43305105BF
:100FB00059F70895262F943070F48C3060F4682F20
:100FC00070E08CE0989F600D711D112440EB51E0A2
:100FD000822F0E9486070895292F943068F48C3060
:100FE00058F490E060EB71E03CE0239F800D911D90
:100FF00011240E94B307089580E00895CF92DF92F4
:10100000FF920F931F93CF93DF936C010091C20166
:101010008091C301082BC3E0D0E010E0FC2EC80192
:101020000C2E02C0959587950A94E2F780FD0CC0BE
:101030002197A0F7F12C8F2DDF91CF911F910F9168
:10104000FF90DF90CF900895B6018C2F0E94190F6A
:10105000019771F3F0CFCF93DF93EC010E94FE076D
:10106000BE010E94190FDF91CF9108951F93CF9376
:10107000DF93EB019091AF01992339F0CB010E94EE
:101080002B08DF91CF911F910895882369F0CB0140
:101090000E94FE07182F682FCE010E94DA07BE01BA
:1010A000812F0E94190FEDCFCB010E94EC07182F62
:1010B000F6CFE1E0F0E0DF0102C0AA0FBB1F6A95A6
:1010C000E2F7BD01DF0102C0AA0FBB1F4A95E2F79C
:1010D0006A2B01C0EE0F2A95EAF7962F98239613F4
:1010E00002C08E2B0895E0958E230895242F462F5D
:1010F000682F8091C2010E9459080E943C07089500
:101100001F93CF93DF93C091C40117E08091C50175
:101110008C1304C0DF91CF911F910895D0E01C9FE4
:10112000F0011D9FF00D1124EA53FE4F2081318103
:10113000428153816481758186810E940D072196C9
:10114000C770E4CF2091FE013091FF014091000271
:101150005091010260910202709103028091040299
:101160000E940D070895CF93DF9380910402807F42
:1011700009F04DC080910302882309F448C0E09132
:10118000C4015091C501C091FF01D091FE01609151
:1011900000027091010247E05E17C9F18E2F90E0C6
:1011A000E49FF0011124EA53FE4F2481222391F1A0
:1011B000489FF001499FF00D1124DF01AA53BE4F53
:1011C00011962C9111972C1325C02C912D1322C010
:1011D00015962C91159721111DC012962D913C91B9
:1011E000261B370B283C3105A8F4809104028F7030
:1011F000806180930402E453FE4F80818F70806190
:1012000080838EEF91E00E949D060E948008DF910E
:10121000CF910895FC013196E770BECF482F209101
:10122000C4019091C50157E0291302C080E00895E0
:1012300030E0529FF001539FF00D1124EA53FE4F0E
:101240008181681306C08081481303C085818111A4
:10125000EECF2F5F3F4F2770E7CFA4E1B0E0E3E38D
:10126000F9E00C94AF238C0186E0F801DE011F96B3
:1012700001900D928A95E1F7F8018481E5809EEF57
:10128000A92E91E0B92E9091020291111FC08823DE
:10129000D1F0EE20A9F0C8010E94F606F82E8823AE
:1012A00079F087E0F801D50101900D928A95E1F778
:1012B000C5010E94D8030E94B3080E94A2085FC023
:1012C000C8010E949D06FF24F39459C0C080D180BC
:1012D00082809380F09003022091000230910102FD
:1012E000A401421B530BFF2009F4F9C0483C5105EF
:1012F00008F0A7C0882309F442C09091FF018091B3
:101300000402282F207F09F05CC09D1116C0909127
:10131000FE01C91212C0E1104EC08F70806180932F
:1013200004020E94A2088EEF91E00E949D06809127
:101330000402F8018683F12C22C0E1103CC06D2D1F
:101340008C2D0E940E096D2D8C2D0E940E09E82E09
:101350008111F1CFCF86D88A8F8598890E942B087A
:10136000292F22952F70243078F49F702230A8F016
:101370009923B9F0F8019681907F99F4FE2C8F2D76
:101380006496ECE00C94CB232A5F2F70223068F037
:10139000C8010E949D06EF2CF1CF992311F08823FC
:1013A00069F3805E883050F3F3CF803F38F3815F7C
:1013B000833070F7E3CF8091040281608093040250
:1013C000BACF9D1113C09091FE01C9120FC0E11058
:1013D0000DC08683C8010E949D0687E0F801AEEF2C
:1013E000B1E001900D928A95E1F767CFC8010E94A4
:1013F000F606882309F464CFEE2009F461CF8091CA
:101400000402803288F02091FE013091FF0139877B
:1014100028879B868A86909102029C871D868E87EC
:10142000CE0108960E949D0687E0F801AEEFB1E07C
:1014300001900D928A95E1F70E94B3080E94A208DC
:1014400042CF90910402292F207FA1F4682D9A8A1F
:10145000898AA6017A899E2D0E9403078EEF91E06A
:101460000E949D0687E0F50111928A95E9F70E9496
:10147000A20861CF882309F482CF8091FF018D11EA
:1014800010C08091FE01C8120CC0E1100AC0968302
:10149000C8010E949D0687E0F50111928A95E9F73F
:1014A0006ECFC8010E94F606882309F409CFEE200A
:1014B00009F406CF80910402803208F4B5CF209160
:1014C000FE013091FF013A8329839C828B829091A7
:1014D00002029D831E828F83CE010196A3CF483CDA
:1014E0005105B8F5882309F4EECEFE2CEE2009F460
:1014F000E7CE8091FF018D111EC08091FE01C812C0
:101500001AC08091040280FD0DC0982F907F51F089
:101510008683903F09F45ECF982F907F905F8F7005
:10152000892B57CF87E0F801AEEFB1E001900D9223
:101530008A95E1F724CFC8010E94F606811174CF85
:1015400080910402816080930402C8010E949D067C
:1015500016CF682D9A8A898AA6017A899E2D0E94C3
:10156000030787E0F50111928A95E9F7A6CEAEE070
:10157000B0E0EDEBFAE00C94B823288739874A876E
:101580005B876C877D878E87CE0108960E942D0928
:101590008823B1F06C85662341F0288539854A851A
:1015A0005B857D858E850E940D0717E08091C401C3
:1015B0009091C50189133DC02E96E3E00C94D4238D
:1015C00087E0FE013896DE01119601900D928A9512
:1015D000E1F78C85882349F32091C50130E0C901EA
:1015E0000196877099274091C4014817190699F010
:1015F00097E0929FD001939FB00D1124AA53BE4F44
:10160000FE01319601900D929A95E1F78093C50104
:101610000E948008CACF0E94D6061092C50110927F
:10162000C40187E0EEEFF1E0DF011D928A95E9F752
:10163000BCCF819FC00111248A539E4F0E942D0967
:10164000882309F4B9CFE091C4011E9FF001112451
:10165000EA53FE4F2081318142815381648175813B
:1016600086810E940D078091C40190E001968770E9
:1016700099278093C4019ACF682F8091000190919F
:1016800001010E94FB1A0895682F8091000190913A
:1016900001010E94091B08958091000190910101B0
:1016A0000E94171B08958091250286958695869540
:1016B0000895809125028770089590912502977072
:1016C00081E009F480E008958091490208959091A5
:1016D0004902892B8093490208958095909149028F
:1016E0009823909349020895109249020895909189
:1016F0004802892B80934802089580959091480272
:1017000098239093480208951092480208950895EE
:101710000E94870B089590912602292F282331F0EB
:1017200080958923809326020E94880B089508954E
:101730000E94970B089590912702292F282328179C
:1017400029F0982B909327020E94980B089590916E
:101750002702292F282331F080958923809327029F
:101760000E94980B089580912702882329F01092F7
:10177000270280E00E94980B0895CF93DF93E091B9
:101780000001F0910101809149028083E091000104
:10179000F0910101808190914802892B8083909182
:1017A0002702992381F0E0910001F09101018081ED
:1017B000892B808380910001909101010E94671A1A
:1017C00081110E94B30BC0910001D091010140E250
:1017D00050E065E072E0CE010E94F423892B59F0BD
:1017E00080E2FE01A5E0B2E001900D928A95E1F75A
:1017F000CE010E94F519DF91CF91089508950E94BE
:10180000FE0B089590919C0292FF11C098E0899F71
:1018100090011124622B609325020E944E07809153
:1018200025028695869586950E94FF0B08950E9455
:101830004E0708951092250280E00E94FF0B089544
:10184000909125028095892380932502282F277067
:1018500069F4891759F090919C0292FF07C0869510
:10186000869586950E945A070E941A0C08959091B9
:101870009C0292FB222720F9281769F080FB92F93D
:1018800090939C0280919B0290919C020E94800CFC
:1018900082E00E94200C089580919C0282FB8827A0
:1018A00080F991E089270E94370C089581E00E9419
:1018B000370C089580E00E94370C08956FEF7FEF9A
:1018C00090E080E00E944624089590E080E00E942D
:1018D0001224863E9E4F19F40E943C14089580E025
:1018E000089582E090E00E940A24089583E090E049
:1018F0000E940A24089584E090E00E941224089532
:10190000BC0184E090E00E9446240895AB01BC0134
:101910008FE090E00E943A240895AB01BC0183E17E
:1019200090E00E943A24089560E070E0CB010E94AC
:101930008D0C089560E070E0CB010E94860C0E943F
:10194000940C0895A8E0B0E0E8EAFCE00C94B92318
:1019500066EE7EEF90E080E00E94462460E082E048
:1019600090E00E94282460E083E090E00E94282418
:101970001092C30160E074E184E090E00E9446248C
:1019800060E086E090E00E9428246FEF87E090E01E
:101990000E94282440E050E0BA0188E090E00E94D4
:1019A0003A2460E084E290E00E94282460E087E12D
:1019B00090E00E94282460E08CE090E00E942824BF
:1019C00060E08DE090E00E94282419821A821B8238
:1019D0001C821D821E821F82188648E050E068E14A
:1019E00070E0CE0101960E94182440E050E0BA0158
:1019F00080E290E00E943A2480E00E9455140E9408
:101A000084140E949A0C2896E2E00C94D5230E943C
:101A1000A20C0895682F8EE090E00E94282408957B
:101A2000A6E0B0E0E6E1FDE00C94B7230E94FC1BC9
:101A30008C0180914A0290914B028017910781F0AE
:101A400019821A820E94FC1B682F49815A81792FC2
:101A500080E090E00E94A80310934B0200934A029A
:101A60002696E4E00C94D3230E94081C609358024D
:101A70007093590280935A0290935B0260935402D0
:101A800070935502809356029093570208950895DB
:101A900008950E94470D089508950E944C0D0895E1
:101AA0008FE090E10E94B3110E94480D0E94490D01
:101AB000089581E008950E94590D08950E94590DDE
:101AC0000895089508950E94610D0E94620D089581
:101AD0000E942E100E947C0308950E94F31B0E9416
:101AE00094140E9407110E94680D0E944D0D0895E4
:101AF000A6E0B0E0EEE7FDE00C94AD230E945B0DA4
:101B000081110AC00E94100D0E944E130E948F0383
:101B10002696EEE00C94C9230E941D112CE4822E1F
:101B200022E0922E640110E0F601E190F1906F0145
:101B3000812F0E9451101F5F143009F44BC0E8162A
:101B4000F90691F380915C0281FD0E945A100E9477
:101B50005E0D782E10E066246394812F0E94511050
:101B60007C01F401A190B1904F018A159B0561F1B0
:101B7000A826BF2400E0CC24C394D12CC5018C211D
:101B80009D21892BC1F07720B1F009831A830E942F
:101B9000FC1B9C838B836D8221E0C7018C219D21DE
:101BA000892B09F420E049815A816B817C818D81E8
:101BB000922F0E94A8030F5FCC0CDD1C0C30F1F6B5
:101BC000F4013297F182E0821F5F143031F60E94F7
:101BD000340D9ACFE816F90609F0B4CF93CF1F93CE
:101BE000CF93DF930E941E0FEC01C11580E5D8074B
:101BF000F0F5C11580E4D80708F09CC0C03ED105BF
:101C000020F5CD3CD10508F082C0C83AD10578F462
:101C1000C53AD10508F073C0C130D10519F120973C
:101C200009F1C430D105F0F4D0E0C0E01BC0C33CE2
:101C3000D105D0F7C85AD0E0CC0FDD1FC15BDE4F15
:101C40000990D881C02DD4640DC0C11580E2D80799
:101C500008F0D1C0C11581E0D80708F05AC0C83ECD
:101C6000D10510F7CE01DF91CF911F910895C036B5
:101C700082E5D80718F5C03482E5D80708F06BC0B4
:101C8000C03282E5D80708F05FC0C11582E5D807E9
:101C900008F497C02C2F2695269580E2289F900166
:101CA00011248C2F8370C1E0D0E002C0CC0FDD1F67
:101CB0008A95E2F7C22BD32BDD68D4CFC03A82E5F8
:101CC000D80760F4C03882E5D80708F459C0CF714E
:101CD000D0E0DC2FCC27C46FD06AC4CFC03C82E5F3
:101CE000D80708F462C0C03E82E5D80708F09CCF50
:101CF000DC2FCC27CC27DF71C06FD06AB3CFC55A99
:101D0000D0E0CB57DE4FC881D0E0D064ABCFD065F8
:101D1000A9CF8D2F0E94C00F182FCE0199270E94A6
:101D20001E0FC12FD0E0DC2FCC27CC27DF71C82BB2
:101D3000D92B98CFCE0199270E941E0FCC27DF7098
:101D4000C82BD92BD06A8ECFCF71D0E0DC2FCC2717
:101D5000C16FD06A87CF2C2F26952695277080E2F9
:101D6000289F900111248C2F8370C1E0D0E002C025
:101D7000CC0FDD1F8A95E2F7C22BD32BDC6872CF24
:101D80002C2F26952695277080E2289F90011124FC
:101D90008C2F8370C1E0D0E002C0CC0FDD1F8A958C
:101DA000E2F7C22BD32BDA685DCF8C2F8F710E94A4
:101DB000C00FC82FD0E0DC2FCC27CC27DF71D0623A
:101DC00051CF8C2F8F710E94C00F55E0D695C795CB
:101DD0005A95E1F7CF70D0E0DC2FCC27282F30E0E8
:101DE00084FF05C044E0220F331F4A95E1F7C22B60
:101DF000D32BD06937CF8D2F8F710E94C00F182F32
:101E0000CE0199270E941E0FC12FD0E0DC2FCC27D6
:101E1000CC27DF71C82BD92BD2CF462F743030F4AA
:101E20006C3020F4672F0E94E017089590E080E066
:101E300008950E940D0F0E94EF0D089582389105BC
:101E4000B9F1B0F48133910509F47DC048F48932C9
:101E5000910509F46DC08A32910509F47BC008959B
:101E60008533910509F45FC08933910509F108951F
:101E7000833E9105D9F138F4803E910529F1823EE7
:101E8000910579F10895863E9105D9F1873E910536
:101E900009F43EC0843E910541F520919C0221FF4A
:101EA00024C080919B0284FD19C087EE90E00895C4
:101EB00020919B02237009F05AC020919C0223FFBD
:101EC00014C089E290E0089520919B0220FD38C063
:101ED00030919C0230FF09C024FF43C090E080E0B5
:101EE000089520919B0222FDF7CF089520919B0237
:101EF00022FD3AC030919C0230FD39C024FFF5CF5D
:101F0000EDCF20919B0223FFF0CF24FDE7CFCDCF73
:101F100020919B0223FD2EC030919C0231FFEECF19
:101F200084EE90E0089520919B0225FFDECFC9CF7B
:101F300020919B0225FD21C020919C0223FFD5CF3B
:101F400089E390E0D2CF20919B0226FFCECF8AE298
:101F500090E0089520919B0226FFC7CF81E390E097
:101F6000089583EE90E0089582EE90E0089580EE6B
:101F700090E0089586EE90E0089585E390E008955E
:101F800090919B0292FF10C041E0282F24712430D1
:101F900009F040E031E0282F2871283009F030E0C6
:101FA000431711F02CE0822793FF10C041E0282F47
:101FB0002471243109F040E031E0282F28712831C4
:101FC00009F030E0431711F02CE0822730919C0299
:101FD00030FF10C051E0282F2171213009F050E06E
:101FE00041E0282F2871283009F040E0541711F003
:101FF00029E0822731FF10C041E0282F21712131D3
:1020000009F040E031E0282F2871283109F030E054
:10201000431711F029E0822794FD877E089580E020
:1020200008950E945E0C08950E941D112FEF86E70F
:1020300091E0215080409040E1F700C000000E94F4
:102040001D1180E00E94511080FF04C00E941110F9
:102050000E94471C08950E94141008950E94650C68
:10206000811102C00E94070D0E94710C80935C02D6
:102070000E947B0C90939C0280939B020E942B10E9
:102080000E94760C0E9421078091C2010E943907AC
:10209000089508950E944910089508950E944D10D2
:1020A0000895E82FF0E0EE0FFF1FEB55FD4F808104
:1020B00091810895089580EA8A95F1F7089500C006
:1020C00008950E945B100895F894E82FE295EF7050
:1020D000F0E031A1282F2F7081E090E001C0880F3F
:1020E0002A95EAF7982F9095932391A392A1892B93
:1020F00082A378940895CF93DF9386EC0E946410B6
:1021000084E30E94641082E30E94641083E30E94CF
:102110006410C8E8D1E089918F3F11F00E946410EB
:1021200081E0C439D807B9F7DF91CF910895AF9214
:10213000BF92DF92EF92FF920F931F93CF93DF93A3
:102140008C01D62EC62FD0E0CE018C569E4F7C013E
:10215000FC0120812F3F09F44DC0F894E22FE29555
:10216000EF70F0E031A12F7081E090E001C0880FA6
:102170002A95EAF7932F982B91A392A18095892312
:1021800082A378940E945F10E8E8F1E044E951E00E
:1021900021E030E0B12CA12C61916F3FA9F1A62F75
:1021A000A295AF70B0E090968C9190E06F7002C0F5
:1021B000959587956A95E2F780FD26C0C901A82A02
:1021C000B92A220F331F4E175F0731F7F7018081BD
:1021D0008F3F11F00E94641061E0A114B10409F472
:1021E00060E08D2D0E946110CC0FDD1FC00FD11F4C
:1021F000B982A882DF91CF911F910F91FF90EF904C
:10220000DF90BF90AF90089590E080E0D8CF0E941B
:102210007B1088E0E5EAF2E0DF01982F1D929A95A5
:10222000E9F7EDE9F2E0DF011D928A95E9F784E034
:102230000E9458110E944A100895A8E0B0E0E3E21D
:10224000F1E10C94B6238E010F5F1F4F88E0F80177
:1022500011928A95E9F7F12C6F2DC8010E94971011
:10226000F394F4E0FF12F8CF48E050E0B8018DE9B4
:1022700092E00E94F42321E0009709F420E0892BEA
:1022800041F088E0F801ADE9B2E001900D928A9545
:10229000E1F744E065EA72E08DE992E00E945911AD
:1022A000182F0E944E10812F2896E5E00C94D2231F
:1022B0000895CF92DF92EF92FF921F93CF93DF9317
:1022C0006C017B01C42F222349F081E080935F02DF
:1022D0000E94FC1B90935E0280935D0210915F024E
:1022E00011110AC010E0812FDF91CF911F91FF9053
:1022F000EF90DF90CF90089580915D0290915E0203
:102300000E94141C059770F3D0E0CC0FDD1FAE01C6
:10231000B601C7010E94F423892B41F0AE01B6013A
:10232000C7010E94012410925F02DDCF10E0FBCFB5
:102330000E94E21D0E946D0D0E94EF1D08950E94F3
:10234000F41D0E94780D0E940E1E08950E94951B98
:102350000E94C81D0E94500D0E9498110E949F115A
:102360000E94630DFBCF9093A9018093A80108956B
:10237000282F35EB2303C001112497FF04C0805898
:102380009109892F089580589F4FFBCF8091660255
:1023900080FF0DC06091070170E0660F771F603805
:1023A000710570F56115710569F1862F089581FF3A
:1023B00007C06091070184E0689FB0011124EFCF4E
:1023C0006091070182FD0AC0809165028823A9F00F
:1023D0002091060160910701821710F088E0ECCF90
:1023E000869FC001112433E0880F991F3A95E1F7C9
:1023F000622F70E00E948823D2CF68E070E0D5CFD2
:102400008FE7089581E008958091660280FF0CC0F7
:102410006091030170E075956795759567956115F5
:10242000710549F1862F089581FF06C0609103016F
:1024300070E075956795F3CF6091030182FD0BC045
:10244000909164029923A1F06091020180910301AF
:10245000961738F0682F70E06038710500F38FE749
:102460000895899FC001112470E00E948823F4CF51
:1024700061E070E0D7CF81E008958D3C31F40E9497
:10248000C611819580936A0208958E3C19F40E94CA
:10249000C611F8CF8F3C31F40E94C611819580930C
:1024A00069020895803D19F40E94C611F8CF893D54
:1024B00029F40E94041280936B0208958A3D21F44E
:1024C0000E9404128195F7CF8B3D31F40E940412D3
:1024D000819580936C0208958C3D19F40E9404123A
:1024E000F8CF9FE2980F983070F4815D990B21E04E
:1024F00030E001C0220F8A95EAF780916802822BB2
:102500008093680208958D3D31F480916602816068
:102510008093660208958E3D21F480916602826068
:10252000F7CF8F3DB9F7809166028460F1CF40917B
:1025300069028D3C59F480916A0287FF0DC01092A8
:102540006A0241110BC01092650208C08E3C81F4F2
:1025500080916A0218169CF3442381F080916B02EB
:1025600090916C02892B09F05AC010926402089570
:102570008F3C49F447FFF0CF1092690280916A02C4
:102580008111ECCFE0CF803D19F41416ACF3E4CF09
:1025900090916B02893D29F41916F4F610926B02A2
:1025A000DBCF8A3D19F497FFD7CFF8CF90916C021B
:1025B0008B3D29F497FFD0CF10926C02CDCF8C3D8C
:1025C00019F41916CCF3C8CF9FE2980F983090F405
:1025D000815D990B21E030E0B90102C0660F771FE1
:1025E0008A95E2F7CB0180959091680289238093C8
:1025F0006802B2CF8D3D31F4809166028E7F809368
:102600006602AACF8E3D21F4809166028D7FF7CFBE
:102610008F3D09F0A1CF809166028B7FF0CF0895A6
:102620000E94FC1B9C019091690280916A02982B88
:1026300021F0309363022093620290916B028091AB
:102640006C02982B21F0309361022093600287E6A0
:1026500092E00E940F1A089586E0E7E6F2E0DF01BB
:102660001D928A95E9F71092650210926402109209
:1026700066020895FC01828181110EC0838181115F
:102680000BC08481811108C091E08581811101C056
:1026900090E0892F8170089581E0FCCFA6E0B0E042
:1026A000E4E5F3E10C94B82386E0E7E6F2E0DE012E
:1026B000119601900D928A95E1F71092690210929D
:1026C0006A0210926B0210926C028B819C81892BA2
:1026D00089F080916202909163020E94141CAC0107
:1026E000909165029923C9F180910801841715061C
:1026F00008F440C08D819E81892B91F08091600209
:10270000909161020E94141CAC0190916402992383
:1027100009F46AC0809104018417150608F472C098
:10272000BE016F5F7F4F87E692E00E94291B8111F7
:1027300005C087E692E00E943A1381110E941013AF
:1027400086E0FE013196A7E6B2E001900D928A95EF
:10275000E1F72696E3E00C94D423209109018AE066
:10276000289F900111242417350720F69F5F90932E
:10277000650202C09F3FD1F71B81112359F00E94CF
:10278000C6119FEF11160CF491E0899F802D112442
:10279000809369021C81112359F00E94C6119FEF9A
:1027A00011160CF491E0899F802D112480936A0208
:1027B00080916902882309F49DCF10916A02112348
:1027C00009F498CF0E94B811882351F080936902D0
:1027D000812F0E94B811882329F080936A028ACF42
:1027E00081E0F4CF81E0F9CF209105018AE0289FB4
:1027F000900111242417350708F092CF9F5F909322
:10280000640202C09F3FD1F71D81112359F00E943D
:1028100004129FEF11160CF491E0899F802D112472
:1028200080936B021E81112359F00E9404129FEFC6
:1028300011160CF491E0899F802D112480936C0275
:1028400080916B02882309F46BCF10916C021123E5
:1028500009F466CF0E94B811882351F080936B026F
:10286000812F0E94B811882329F080936C0258CFE1
:1028700081E0F4CF81E0F9CF85E290E00E940A2464
:10288000833289F486E290E00E940A24803159F470
:1028900087E290E00E940A2491E0873109F090E0FD
:1028A000892F8170089580E0FCCFCF93C82F6FEF00
:1028B000811163E285E290E00E9428246FEFC1114C
:1028C00060E186E290E00E9428246FEFC11167E189
:1028D00087E290E00E942824CF910895089588E22D
:1028E00090E00E940A24682F70E090E080E0089554
:1028F0000895CF93C62F0E9478146C2F88E290E041
:102900000E942824CF91089580E00E94551460E031
:1029100070E0CB010E9479140E9478170E943B1846
:1029200081E00E94551408950E946E140E946F1455
:102930000E9478140E943C14811102C00E948414E9
:10294000089508959C01FB018581882351F0A90118
:1029500057574038510530F4822F0E944B1880E0C1
:10296000089581E008952FEFFC01208308950E94CF
:10297000B314089580E00895B0E0A0E0E2ECF4E143
:102980000C94B323EC01C62E0E94BA14811110C01E
:10299000E881E150E331B8F4F0E0E659FB4D0C94E6
:1029A0009C2319828CE08A836C2DCE010E94BC1C72
:1029B000CDB7DEB7E8E00C94CF2389818230C1F037
:1029C00028F4813061F08FEF8883EECF833099F067
:1029D0008430C9F71A821B821C821D82E5CF0E94B7
:1029E000081C0E94A2236A837B838C839D83DCCF97
:1029F0000E946F14F6CF8A81082F10E07E019EE0BE
:102A0000D92ED80E0430110578F6802F0E9451106F
:102A1000F701938384830F5F1F4FF2E0EF0EF11CE9
:102A2000D012F0CFC1CF8981823031F0853059F694
:102A30008A810E94A114B8CF6A817B818C819D819B
:102A40000E94A2230E947914AFCF4B816A818981B1
:102A50000E943A179827892798279D838C83A4CFB3
:102A60002C813D813227232732274B816A8189813E
:102A70000E945C1799CF0E94781796CF6C2DCE01DB
:102A80000E94B71491CF0E94EC1789838DCF0E94CA
:102A9000EE179827892798279A83898385CF6B819A
:102AA00070E089819A81AE014C5F5F4F982789273A
:102AB00098270E94F11778CF6B8170E089819A8105
:102AC000AE014C5F5F4F9827892798270E94161800
:102AD0006BCF0E943B1868CF0E942817D6CF6B811E
:102AE00070E089819A81AE014C5F5F4F98278927FA
:102AF00098270E94981758CF6B8170E089819A813E
:102B0000AE014C5F5F4F9827892798270E94BC171A
:102B10004BCFCF93DF93EC01FB018581882309F430
:102B2000D2C09E0130572332310508F0B2C00E9456
:102B30007B0C90939C0280939B02FE01E150F04736
:102B4000E232F10520F4E358FB4D0C949C23809174
:102B50009B02816080939B0293C080919C0288605D
:102B600080939C028DC080919B028260F3CF809104
:102B70009B028460EFCF80919B028860EBCF8091B5
:102B80009C028160EDCF80919C028260E9CF8091B0
:102B90009B028061DFCF80919B028062DBCF8091BE
:102BA0009B028064D7CF0E94D60680919B028068EA
:102BB000D1CF80919B028C60CDCF80919C028360AD
:102BC000CFCF80919B028E7FC5CF80919C02877F63
:102BD000C7CF80919B028D7FBDCF80919B028B7F61
:102BE000B9CF80919B02877FB5CF80919C028E7F69
:102BF000B7CF80919C028D7FB3CF80919B028F7E57
:102C0000A9CF80919B028F7DA5CF80919B028F7B66
:102C1000A1CF0E94D60680919B028F779BCF809197
:102C20009B02837F97CF80919C028C7F99CF80916C
:102C30009B0282FB992790F921E0922790FB82F971
:102C400090FB83F987CF80919C02982F909591708B
:102C50008E7F892B90FB81F983CF90919B02892FE6
:102C60008F7B96FF806476CF0E94D60690919B0260
:102C7000892F97FB87F980586DCF81E00E940A0D5C
:102C800080919B0290919C020E94800C0E94D6062B
:102C900080E0DF91CF91089580E0F0CF90919B028A
:102CA000892F8F7E94FF806155CF90919B02892F51
:102CB0008E7F90FF81604ECF90919C02892F877FFD
:102CC00093FF88604DCF81E0E4CFB0E0A0E0EBE679
:102CD000F6E10C94B423E82FF0E0E45DFD4FD490CE
:102CE000282F26952695269530E0F901E453FD4FCF
:102CF0000491877010E0082E02C0159507950A947C
:102D0000E2F701701127F901E454FD4FE490F12C32
:102D1000082E02C0F594E7940A94E2F791E0E922C4
:102D2000FF24F901E455FD4FC491D0E002C0D595D0
:102D3000C7958A95E2F7C170DD270115110519F0D5
:102D400081EE0E94EB03E114F10419F086EE0E947B
:102D5000EB038D2D0E948304E114F10419F086EE3B
:102D60000E9438040115110519F081EE0E94380403
:102D7000CD2B19F08CE20E948304CDB7DEB7E7E0DB
:102D80000C94D023EF92FF920F931F93CF93DF9376
:102D9000EC01162F0AE08881882309F454C08130A1
:102DA00009F04EC08981813099F47E0122E0E20E63
:102DB000F11C8A810E948304E7012196812F8150B2
:102DC00050F3EFE9FFE03197F1F700C00000F7CFD3
:102DD000823041F47E0182E0E80EF11C8A810E947B
:102DE000EB03EACF833041F47E01E2E0EE0EF11C0A
:102DF0008A810E943804E0CF843011F02196DDCF23
:102E00002A81229690E080E0AE014F5F5F4F205311
:102E1000330B2A30310548F0019778F2EFE9FFE0F3
:102E20003197F1F700C00000F7CF089FB001099F6C
:102E3000700D1124C901860F971F2981EA01E4CF83
:102E40000E946516BACFCDB7DEB7E6E00C94D12369
:102E500084E0089550E0440F551F98E1699F400DAC
:102E6000511D112490E6899F400D511D1124CA0166
:102E7000899608950F931F93CF93DF938430C8F4FE
:102E80006430B8F44C30A8F40E942A178C010E94D8
:102E90000A24C82FD0E0DC2FCC27C80101960E945D
:102EA0000A249E01282BC901DF91CF911F910F9118
:102EB000089590E080E0F8CF0F931F93CF93DF93B6
:102EC000122F032F843078F4643068F44C3058F4B7
:102ED0000E942A17EC01602F0E942824612FCE0146
:102EE00001960E942824DF91CF911F910F910895A0
:102EF0001F93CF93DF93D0E0C0E011C0412F6C2F20
:102F00008D2F0E9466029C01412F6C2F8D2F0E94F5
:102F10005C171F5F1C3091F7CF5FC43011F010E0D9
:102F2000EDCFDF5FD43041F7DF91CF911F9108954E
:102F3000EF92FF920F931F93CF93DF93EC018A01DF
:102F40007C01E60EF71ECE018996CE15DF0529F429
:102F5000CDB7DEB7E6E00C94D123C03821E0D2072C
:102F600040F40E940A24F80180830F5F1F4F2196CE
:102F7000EACFF8011082F9CFB0E0A0E0E2ECF7E18F
:102F80000C94B3237C016A018C01060F171FEC011E
:102F9000CE018996C017D10729F4CDB7DEB7E8E096
:102FA0000C94CF23C03821E0D20740F4FE01EE1983
:102FB000FF09EC0DFD1D60810E9428242196E8CFB9
:102FC000843038F4643028F44C3018F40E943A17F6
:102FD000089590E080E0089580E1089587E592E00B
:102FE0000895EF92FF920F931F93CF93DF93EC011D
:102FF0008A017C01E60EF71ECE0187559E4FCE1545
:10300000DF0529F4CDB7DEB7E6E00C94D123C73550
:1030100022E0D20740F40E940A24F80180830F5F67
:103020001F4F2196E9CFF8011082F9CFB0E0A0E060
:10303000ECE1F8E10C94B3237C016A018C01060FEA
:10304000171FEC01CE0187559E4FC017D10729F4F9
:10305000CDB7DEB7E8E00C94CF23C73522E0D20726
:1030600040F4FE01EE19FF09EC0DFD1D60810E9488
:1030700028242196E7CFCF93DF93C9EAD1E060E01F
:10308000CE010E9428242196C11584E0D807B9F703
:10309000DF91CF910895A8E0B0E0E1E5F8E10C946C
:1030A000B123F82E8FE08F1508F46EC08FEF93E0F8
:1030B0000E940A24811168C009EA11E0F11035C0AC
:1030C000FE0131966F0188E011928A95E9F7780147
:1030D000FFEFEF1AFF0AC8010E940A2489831A82AF
:1030E000882309F451C08130D1F4580182E0A80E40
:1030F000B11CC7010E940A248A83882309F444C0B2
:103100009FEF980F9330F0F4780193E0E90EF11CF3
:10311000C5010E940A248B838823B1F11C8260E0E0
:10312000C6010E94C2168701D2CF011594E019078B
:1031300059F1C8010E940A24811101C0FA940F5F5D
:103140001F4FBCCF7501843051F702E010E07501CC
:10315000EFEFEE1AFE0AC5010E940A24F601E00F05
:10316000F11F8083882381F08C3741F4E2E0F0E0A6
:10317000EC0FFD1FE00FF11F1082D1CF0F5F1F4F2B
:1031800057010730110519F72896EAE00C94CD2372
:10319000CF93DF93EB0186319C4711F50E94640BBE
:1031A0009D81992399F08A7A91E009F490E09093B7
:1031B0006D02811109C089E20E943C0B0E94BD0B87
:1031C00080E0DF91CF91089585E3F6CF80916D0285
:1031D000811104C089E20E94440BF0CF85E3FBCF4C
:1031E00081E0EFCF0F931F93CF93DF93C42FD22FA4
:1031F000FC0185818823C9F0409370020E94FC1B6A
:1032000090936F0280936E0280E28C0F883040F4BE
:10321000C77081E001C0880FCA95EAF70E948C044C
:10322000DF91CF911F910F910895109170021413A7
:1032300032C080916E0290916F020E94141C883CF3
:10324000910548F5C0E2CD0F1D17B9F080E2810F5E
:10325000883040F4177081E001C0880F1A95EAF7B2
:103260000E949304C83048F481E09D2F977001C0FC
:10327000880F9A95EAF70E948C04802F0E9483049D
:10328000C83070F6D77081E001C0880FDA95EAF790
:103290000E949304C5CF80E28C0F883008F6C77077
:1032A00081E001C0880FCA95EAF7F2CF0F93DB01E6
:1032B00088519C4787309105A0F5FC01E156FB4DF4
:1032C0000C949C2306E221EE41EE6AE17CE7CD01FD
:1032D0000E94F21880E00F91089507E225EE45EE76
:1032E0006BE17CE7F4CF06E221EE40EE68E17CE79B
:1032F000EECF07E225EE44EE69E17CE7E8CF06E297
:1033000021EE42EE6CE17CE7E2CF07E225EE46EEED
:103310006DE17CE7DCCF08E221E045EE6EE17CE781
:10332000D6CF15968C91882319F010927002D3CFC6
:1033300081E0D1CF1F93CF93DF9387372CE792079C
:1033400059F0C1E088379C47E1F4FB01C581CC23EB
:1033500071F10E94DD1906C0FB01C581CC23B1F0DB
:103360000E94DA190E944E070E94E019D82F0E948D
:10337000DD19C82F0E94DA194D2F6C2F0E94760894
:10338000C0E08C2FDF91CF911F9108950E94DA1930
:103390000E945A070E94E019182F0E94DD19D82FA9
:1033A0000E94DA19412F6D2F0E947608EACF0E9401
:1033B000DD19EECF80910C01089580910B010895E5
:1033C00080910A0108959093760280937502089582
:1033D000E0917502F0917602309729F00190F0812A
:1033E000E02D0995089580E00895E0917502F0912F
:1033F0007602309799F020911501222359F02091FF
:103400009B0227FF07C0DC012C9111962C9311978A
:1034100026E02C930280F381E02D09950895E09138
:103420007502F0917602309739F022E0DC012C939E
:103430000480F581E02D09950895A3E0B0E0E3E272
:10344000FAE10C94B9232091730230917402281789
:103450003907A1F09093740280937302E091750292
:10346000F0917602309751F023E029839B838A8381
:103470000680F781E02DCE01019609952396E2E0C2
:103480000C94D523A3E0B0E0E8E4FAE10C94B9236E
:10349000209171023091720228173907A1F09093A0
:1034A000720280937102E0917502F091760230977A
:1034B00051F024E029839B838A830680F781E02DE5
:1034C000CE01019609952396E2E00C94D523FC01E8
:1034D000329680911501882321F080919B029EE114
:1034E00087FF96E080E0915008F40895219122230F
:1034F000D1F38F5FF8CF662301F1209115012223CC
:10350000F1F020919B0227FF1AC0462F4695469561
:1035100046954E3190F4677021E030E002C0220FF2
:10352000331F6A95E2F7840F911DFC01828190E0C0
:103530002823392381E0232B69F480E00895FC01DE
:10354000329608962191261721F0E817F907D1F74E
:10355000F4CF81E008959C01FC0132969FEF80E05A
:103560004191461751F09F3F19F4411101C0982F26
:103570008F5F8630A9F79F3F09F40895290F311D09
:1035800097FD3A95F90162830895FC0132960896F9
:103590002191261303C0DF0111971C92E817F90748
:1035A000B9F70895E62FE695E695E695EE3168F4CD
:1035B000E80FF92FF11D677021E030E001C0220F04
:1035C0006A95EAF78281822B82830895E62FE69539
:1035D000E695E695EE3170F4E80FF92FF11D67706E
:1035E00021E030E001C0220F6A95EAF72095828140
:1035F00028232283089520911501222339F0209158
:103600009B0227FF03C00E94D21A08950E94AB1AA2
:10361000089520911501222339F020919B0227FF64
:1036200003C00E94E61A08950E94C51A0895FC017D
:10363000329680911501882351F080919B0287FF7B
:1036400006C08EE1DF011D928A95E9F7089586E0B4
:10365000F9CFDC01FB0111969C91119781819813A0
:1036600022C012968C911297882319F092818913A7
:103670001AC013968C911397882319F0938189139C
:1036800012C015968C911597882319F0958189138E
:103690000AC014969C91992321F081E0248129137A
:1036A00003C080E001C081E08170089508950E9408
:1036B000561B0895811106C081E0809377020E9415
:1036C000571B089582E0F9CF83E0809377020E9430
:1036D000571B08950E945A1B089581E0809377023A
:1036E0000E94571B08950E946D1B08950895089528
:1036F0000E94771B0895089508950E94761B0895EF
:10370000CF930E947B1B0E941D110E947C1BC0E076
:103710008C2F0E945110892B31F4CF5FC430C1F738
:1037200080E0CF91089581E0FCCF85B7806885BFA8
:1037300085B7806885BF08951F921FB61F92112418
:103740008F939F93AF93BF9380917802811113C0A1
:103750008091AD029091AE02A091AF02B091B00203
:103760004196A11DB11D8093AD029093AE02A0932E
:10377000AF02B093B002BF91AF919F918F911F9014
:103780001FBE1F9018958091B502843031F10E94C0
:103790005F031092780288E190E020E40FB6F8947D
:1037A000A895809360000FBE2093600083B7817F4F
:1037B000846083BF83B7816083BF7894889583B723
:1037C0008E7F83BF0FB6F894A895809160008861C2
:1037D00080936000109260000FBE08950E94D6068C
:1037E0000E946403089582E084BD93E095BD9AEF42
:1037F00097BD80936E0008952FB7F8948091AD0225
:103800009091AE02A091AF02B091B0022FBF089587
:103810002FB7F8946091AD027091AE028091AF0223
:103820009091B0022FBF08959C014FB7F8948091FA
:10383000AD029091AE02A091AF02B091B0024FBF25
:10384000821B930B089578941F921FB61F92112428
:103850008F939F93AF93BF938091AD029091AE02EF
:10386000A091AF02B091B0020196A11DB11D80934D
:10387000AD029093AE02A093AF02B093B002BF919D
:10388000AF919F918F911F901FBE1F90189587E752
:1038900097E7909301088093000888E19AE00FB6BB
:1038A000F894A895809360000FBE90936000FFCFBE
:1038B00088E19AE00FB6F894A895809360000FBE57
:1038C00090936000FFCF8091990208959B01BA0107
:1038D0009091B5029430E9F48F708093E9009FEFE6
:1038E0008091E800915085FD06C085ED8A95F1F73D
:1038F00000009111F5CF8091E80085FF0AC050E0EB
:1039000040E0C9010E94B21E8091E8008E7780934A
:10391000E800089543E050E0BC0184E00E94661C8A
:10392000089546E050E0BC0184E00E94661C0895C2
:10393000CF93DF93EC0180911501811111C048E014
:1039400050E0BE0181E00E94661C80E2FE01A9E712
:10395000B2E001900D928A95E1F7DF91CF91089541
:1039600080919B0287FF05C040E284E050E0BE01E9
:10397000EACF48E081E0FACF603231F440E250E033
:10398000BC0182E00E94661C08958091B4028111FE
:1039900009C00E9491200E94EE208091E200846084
:1039A0008093E20008951092B40208950E946D1B66
:1039B00008956091B10281E0611101C080E00E9430
:1039C000641B08959091B50281E0943009F080E085
:1039D0006091B1020E946A1B089542E061EC81E0AF
:1039E0000E940D2042E261EC84E00E940D2042E240
:1039F00061EC82E00E940D2042E260EC83E00E94D4
:103A00000D209091B50281E0943009F080E0609142
:103A1000B1020E945A1B08958091B702833009F4C5
:103A200063C030F48130E1F1823009F4A0C0089520
:103A30008A3009F48CC08B3009F471C0893009F0E8
:103A400052C08091B602813209F04DC08091BA0215
:103A50009091BB02009719F0029709F044C0809141
:103A6000E800877F8093E8008091E80082FF37C0FC
:103A70009091F3008091F200029731F48091F1006F
:103A8000813011F0863021F48091F1008093990209
:103A90008091E8008B778093E8000E94412023C04A
:103AA0008091B602813AF9F48091E800877F809393
:103AB000E8008091BA029091BB02892B61F460E228
:103AC00089E792E070E00E94501F8091E8008B77B8
:103AD0008093E800089560E090E080E0F3CF80916B
:103AE000B5028111C1CF08958091B602813AD9F70C
:103AF0008091BA029091BB02892BA9F78091E800CE
:103B0000877F8093E8008091E80080FFFCCF809160
:103B100015018093F1008091E8008E77BCCF8091F1
:103B2000B602813201F78091BA029091BB02892BD3
:103B3000D1F68091E800877F8093E8000E944120C1
:103B40008091B802809315010E94D6060895809155
:103B5000B602813241F68091E800877F8093E800C9
:103B60000E9441208091B90280939A020895809129
:103B7000B602813A09F0B7CF8091E800877F809341
:103B8000E8008091E80080FFFCCF80919A02C1CFCD
:103B900084B7877F84BF0FB6F894A89580916000A2
:103BA000886180936000109260000FBE80E890E012
:103BB0000FB6F89480936100909361000FBE0E944D
:103BC000731B08950E9491200E94EE20E2EEF0E027
:103BD00080818460808378940E946D2308958DE0B5
:103BE00091E00E94E31908958091B502853031F487
:103BF0008091B502853019F00E94EE1B08950E9455
:103C0000C31B8091B302882399F30E94801B8823F1
:103C100079F30E949C1E0E94D606EACFA0E2B0E093
:103C2000E4E1FEE10C94B9238091B502843009F5FA
:103C300083E08093E9008091E80082FF1AC08091C0
:103C4000E80090E085FF09C050E040E060E270E0ED
:103C5000CE0101960E94011F91E08091E8008B77D0
:103C60008093E800992329F060E2CE0101960E943A
:103C7000BC14A096E2E00C94D5239A014091BC02BA
:103C80005091BD020E94451E0895492F552743308B
:103C9000510521F168F44130510509F443C0423027
:103CA000510509F444C090E080E050E040E026C0B7
:103CB0004132510551F142325105A9F76330710586
:103CC00090F7FB01EE0FFF1FE556FE4F408151813B
:103CD00068567E4FFB01808190E010C099278130AB
:103CE000910581F0009729F00297E9F6ECEDF2E0FA
:103CF00002C0E0E0F3E0849190E0AF01F90151836C
:103D000040830895E4EFF2E0F6CF6330710558F692
:103D1000660F771FFB01EF55FE4F4081518189E00F
:103D200090E0ECCF82E190E04FE553E0E7CF8BE508
:103D300090E044E053E0E2CF80E189BD82E189BDBB
:103D400009B400FEFDCF8091D8008F7D8093D8000C
:103D50008091E00082608093E0008091E00081FD2E
:103D6000FCCF0895AF92BF92CF92DF92FF920F9354
:103D70001F93CF93DF936C01EB018A010E946020B7
:103D8000F82E811123C00115110539F0F801808149
:103D90009181C81BD90BC80ED91EB12CA12C20971C
:103DA000A9F08091E80085FD22C08091E8008E771F
:103DB0008093E80001151105A1F0F801808191813F
:103DC000A80EB91EB182A08285E0F82E8F2DDF915A
:103DD000CF911F910F91FF90DF90CF90BF90AF9048
:103DE00008950E9460208823D1F2F82EEFCFF601CB
:103DF00081916F018093F1002197FFEFAF1ABF0A05
:103E0000CECFAF92BF92CF92DF92FF920F931F93CC
:103E1000CF93DF936C01EB018A010E946020F82EA2
:103E2000811123C00115110539F0F80180819181BC
:103E3000C81BD90BC80ED91EB12CA12C2097A9F0F4
:103E40008091E80085FD22C08091E8008B77809307
:103E5000E80001151105A1F0F80180819181A80EFB
:103E6000B91EB182A08285E0F82E8F2DDF91CF910F
:103E70001F910F91FF90DF90CF90BF90AF9008956A
:103E80000E9460208823D1F2F82EEFCF8091F100BC
:103E9000F60181936F012197FFEFAF1ABF0ACECFD2
:103EA000FC018091BC029091BD0286179707A0F09B
:103EB0006115710529F49091E8009E779093E800D0
:103EC00090E06115710551F4911108C08091E800EE
:103ED00082FF34C080E00895BC01F2CF8091B5022A
:103EE0008823C1F18530C1F18091E80083FD30C0A5
:103EF0008091E80082FDEACF8091E80080FFE1CF69
:103F00008091F3002091F200382F6115710519F0AE
:103F10002830310558F091E02830310509F090E063
:103F20002091E8002E772093E800CBCF81918093F9
:103F3000F100615071092F5F3F4FE7CF8091B502CB
:103F4000882341F0853041F08091E80083FFBECFA7
:103F500081E0089582E0089583E00895FC01809156
:103F6000BC029091BD0286179707A0F061157105FC
:103F700029F48091E8008E778093E80090E0611545
:103F8000710551F4911108C08091E80082FF35C09D
:103F900080E00895BC01F2CF8091B5028823C9F179
:103FA0008530C9F18091E80083FD31C08091E8003F
:103FB00082FDEACF8091E80080FFE1CF8091F3009D
:103FC0002091F200382F6115710519F02830310564
:103FD00058F091E02830310509F090E08091E80038
:103FE0008E778093E800CBCF84918093F100319657
:103FF000615071092F5F3F4FE6CF8091B502882352
:1040000041F0853041F08091E80083FFBDCF81E031
:10401000089582E0089583E00895982F973028F05E
:104020008F708093E90081E008959093E900242F38
:10403000762F50E0981731F07091EC002091ED0050
:104040005091F00021FD02C09F5FE8CF3091EB005E
:104050003E7F3093EB003091ED003D7F3093ED00DB
:104060003091EB0031603093EB007093EC002093C3
:10407000ED005093F0002091EE0027FDE5CF80E0A9
:1040800008958091B60287FF13C08091E80082FFF7
:1040900006C08091E8008B778093E80004C080918F
:1040A000B5028111F2CF08958091B5028823D9F32A
:1040B0008091E80080FFF8CF8091E8008E77ECCF08
:1040C0002091E4003091E50095E6A9012091EC00F3
:1040D000822F817020FF06C08091E80080FF06C01B
:1040E00080E008952091E80022FD1AC08091B50279
:1040F000882389F0853089F08091EB0085FD0FC021
:104100002091E4003091E50042175307F9F29150F5
:10411000E1F684E0089582E0089583E0089581E067
:1041200008950E9400210E940821E0EEF0E08081C5
:1041300081608083E8EDF0E080818F77808319BC17
:10414000A7EDB0E08C918E7F8C9380818F7E8083F1
:104150001092B40208950F931F93CF93DF930E94A0
:1041600000210E940821C8EDD0E088818F778883E4
:1041700088818068888388818F7D888319BC1092AC
:10418000B5021092B1021092B3021092B20200EE88
:1041900010E0F80180818B7F808388818160888333
:1041A00042E060E080E00E940D20E1EEF0E08081DE
:1041B0008E7F8083E2EEF0E0808181608083808169
:1041C00088608083F80180818E7F80838881806110
:1041D0008883DF91CF911F910F910895E8EDF0E072
:1041E00080818F7E8083E7EDF0E080818160808335
:1041F00084E082BF81E08093B4020E94AB200895E6
:10420000E8EDF0E080818E7F80831092E2000895D7
:104210001092DA001092E10008951F920F920FB6EB
:104220000F9211242F933F934F935F936F937F933C
:104230008F939F93AF93BF93EF93FF938091E10090
:1042400082FF0BC08091E20082FF07C08091E100F5
:104250008B7F8093E1000E946C238091DA0080FFC5
:1042600019C08091D80080FF15C08091DA008E7F40
:104270008093DA008091D90080FF96C080E189BDEB
:1042800082E189BD09B400FEFDCF81E08093B502D3
:104290000E94C51C8091E10080FF19C08091E2005E
:1042A00080FF15C08091E2008E7F8093E2008091B4
:1042B000E20080618093E2008091D8008062809368
:1042C000D80019BC85E08093B5020E94D91C80916A
:1042D000E10084FF2BC08091E20084FF27C080E1D1
:1042E00089BD82E189BD89B5982F917080FFFBCF90
:1042F0008091D8008F7D8093D8008091E1008F7EDF
:104300008093E1008091E2008F7E8093E2008091B3
:10431000E20081608093E2008091B102882309F479
:1043200049C084E08093B5020E94E21C8091E100C4
:1043300083FF29C08091E20083FF25C08091E100C6
:10434000877F8093E10082E08093B5021092B102F2
:104350008091E1008E7F8093E1008091E2008E7F6A
:104360008093E2008091E20080618093E20042E06D
:1043700060E080E00E940D208091F00088608093D2
:10438000F0000E94D61CFF91EF91BF91AF919F91D9
:104390008F917F916F915F914F913F912F910F90EE
:1043A0000FBE0F901F90189519BC1092B5020E9475
:1043B000D31C70CF8091E30087FD93E09093B5020A
:1043C000B3CF1F920F920FB60F9211242F933F93EA
:1043D0004F935F936F937F938F939F93AF93BF930D
:1043E000CF93DF93EF93FF93D091E900DF7080913B
:1043F000EC00C82FC17080FDC0E81092E9008091E8
:10440000F000877F8093F00078940E94252210921C
:10441000E9008091F00088608093F000CD2BCF7090
:10442000C093E900FF91EF91DF91CF91BF91AF91E0
:104430009F918F917F916F915F914F913F912F91BC
:104440000F900FBE0F901F901895AAE2B0E0EBE21C
:10445000F2E20C94B82386EB92E02091F100FC018B
:104460002193CF01F2E08E3B9F07B9F70E940C1D0C
:104470008091E80083FF1EC18091B6029091B7023F
:104480009A3008F017C1E92FF0E0EA55FB4D0C9483
:104490009C23803899F0823809F00CC18091BA02CF
:1044A0008F70873008F006C18093E9008091EB009F
:1044B00085FB882780F91092E90006C08091B2023E
:1044C0009091B302911182609091E800977F909350
:1044D000E8008093F1001092F1008091E8008E775F
:1044E000E5C0882309F4D3C0823009F0E3C080918D
:1044F000B8028111D6C08091BA028F702FEF280FB9
:10450000263008F0D7C08093E9002091EB0020FF0F
:10451000C8C0933031F48091EB0080628093EB004F
:10452000C0C09091EB0090619093EB0021E030E0EF
:1045300001C0220F8A95EAF72093EA001092EA0060
:104540008091EB008860EACF8111B4C01091B8026D
:104550001F778091E3008078812B8093E300809126
:10456000E800877F8093E8000E9441208091E80066
:1045700080FFFCCF8091E30080688093E30082E0BD
:10458000111183E08093B50295C08058823008F005
:1045900091C08091B8029091B9028C3D23E09207BE
:1045A000A1F583E08A838AE289834FB7F894DE011C
:1045B000139620E03EE051E2E32FF0E050935700E5
:1045C000E49120FF03C0E295EF703F5FEF708E2F04
:1045D00090E0EA30C0F0C7968D939D932F5F243111
:1045E00059F74FBF8091E800877F8093E8006AE227
:1045F00070E0CE0101960E94501F8091E8008B77F9
:104600008093E80057C0C096E7CF6091BA027091DE
:10461000BB02AE014F5F5F4F0E943D1EBC01892B64
:1046200009F448C09091E800977F9093E800898151
:104630009A810E94AE1FE1CF8038E1F58091E800B9
:10464000877F8093E8008091B1028093F10045CF8D
:10465000811130C09091B802923060F58091E800ED
:10466000877F8093E8009093B1020E94412080915F
:10467000B102882311F084E005C08091E30087FD3A
:10468000FACF81E08093B5020E94ED1C13C08091A7
:10469000B802813079F481E0933009F080E08093B2
:1046A000B3021092E9008091E800877F8093E800D0
:1046B0000E9441208091E80083FF0AC08091E800B9
:1046C000877F8093E8008091EB0080628093EB000D
:1046D000AA96E3E00C94D4230895CF938091B50279
:1046E0008823A1F0C091E900CF709091EC00892F50
:1046F000817090FD80E8C82B1092E9008091E8005D
:1047000083FD0E942522CF70C093E900CF910895C8
:1047100097FB072E16F4009407D077FD09D00E946E
:10472000E02307FC05D03EF4909581959F4F0895B6
:10473000709561957F4F0895EE0FFF1F0590F491DE
:10474000E02D0994692796276927782787277827F6
:1047500008952F923F924F925F926F927F928F9225
:104760009F92AF92BF92CF92DF92EF92FF920F9300
:104770001F93CF93DF93CDB7DEB7CA1BDB0B0FB60A
:10478000F894DEBF0FBECDBF09942A8839884888C7
:104790005F846E847D848C849B84AA84B984C8845D
:1047A000DF80EE80FD800C811B81AA81B981CE0F54
:1047B000D11D0FB6F894DEBF0FBECDBFED01089539
:1047C000AA1BBB1B51E107C0AA1FBB1FA617B70737
:1047D00010F0A61BB70B881F991F5A95A9F7809553
:1047E0009095BC01CD010895FB01DC0104C08D91C1
:1047F0000190801921F441505040C8F7881B990B53
:104800000895FB01DC0102C001900D92415050401F
:10481000D8F70895F999FECF92BD81BDF89A9927EE
:1048200080B50895A8E1B0E042E050E00C944E2439
:10483000DC01A40FB51F4150504048F0CB01840F5C
:10484000951F2E910E94292441505040D0F7089581
:10485000262FF999FECF92BD81BDF89A019700B439
:10486000021639F01FBA20BD0FB6F894FA9AF99AD9
:104870000FBE08950396272F0E9429240E94282402
:10488000252F0E942924242F0C9429240196272FB8
:104890000E9429240C942824DC01CB01FC01F99905
:1048A000FECF06C0F2BDE1BDF89A319600B40D927C
:1048B00041505040B8F70895F894FFCFD904D90477
:1048C000290529058E05AA0508050805AF05160660
:1048D00025062506D114DD141315251530153B15B5
:1048E0003E153E153E15E314E314431547154F15C9
:1048F0005C1569156C156F157C15E1155516E915D4
:10490000B315B715ED15BB15F115FD15C7154E16E9
:10491000CB150116CF1505162D16D315091634160D
:10492000D9150F161716BF15F515C315F915DD1591
:10493000131623163D164C16AD15E5155C167319A6
:10494000791962196D197F1985198B1949227122FC
:104950005A2371225A23A422C5225A231C23282316
:104960002802280850011E0A1401030201631C9842
:104970001C911C8A1C01E200E900EA00B500B600A7
:10498000B700CD008301CC008A019201940121027D
:10499000230224022502260227022A02B300B400C1
:1049A0006F0070009F01CB019F02A002818283E211
:1049B00000E900EA00B500B600B700CD008301CCE5
:1049C000008A019201940121022302240225022679
:1049D0000227022A02B300B4006F0070009F01CBCF
:1049E000019F02A00281828393F4F5F6F731976666
:1049F00094909192C63432334422B64904710393A1
:084A00000316032F034F03000E
:00000001FF
